{
  "contractName": "Array256Lib",
  "abi": [
    {
      "constant": true,
      "inputs": [
        {
          "name": "self",
          "type": "uint256[] storage"
        }
      ],
      "name": "sumElements",
      "outputs": [
        {
          "name": "sum",
          "type": "uint256"
        }
      ],
      "payable": false,
      "stateMutability": "view",
      "type": "function"
    },
    {
      "constant": true,
      "inputs": [
        {
          "name": "self",
          "type": "uint256[] storage"
        }
      ],
      "name": "getMax",
      "outputs": [
        {
          "name": "maxValue",
          "type": "uint256"
        }
      ],
      "payable": false,
      "stateMutability": "view",
      "type": "function"
    },
    {
      "constant": true,
      "inputs": [
        {
          "name": "self",
          "type": "uint256[] storage"
        }
      ],
      "name": "getMin",
      "outputs": [
        {
          "name": "minValue",
          "type": "uint256"
        }
      ],
      "payable": false,
      "stateMutability": "view",
      "type": "function"
    },
    {
      "constant": true,
      "inputs": [
        {
          "name": "self",
          "type": "uint256[] storage"
        },
        {
          "name": "value",
          "type": "uint256"
        },
        {
          "name": "isSorted",
          "type": "bool"
        }
      ],
      "name": "indexOf",
      "outputs": [
        {
          "name": "found",
          "type": "bool"
        },
        {
          "name": "index",
          "type": "uint256"
        }
      ],
      "payable": false,
      "stateMutability": "view",
      "type": "function"
    },
    {
      "constant": false,
      "inputs": [
        {
          "name": "self",
          "type": "uint256[] storage"
        }
      ],
      "name": "heapSort",
      "outputs": [],
      "payable": false,
      "stateMutability": "nonpayable",
      "type": "function"
    },
    {
      "constant": false,
      "inputs": [
        {
          "name": "self",
          "type": "uint256[] storage"
        }
      ],
      "name": "uniq",
      "outputs": [
        {
          "name": "length",
          "type": "uint256"
        }
      ],
      "payable": false,
      "stateMutability": "nonpayable",
      "type": "function"
    }
  ],
  "bytecode": "0x6108a9610030600b82828239805160001a6073146000811461002057610022565bfe5b5030600052607381538281f300730000000000000000000000000000000000000000301460806040526004361061008f576000357c0100000000000000000000000000000000000000000000000000000000900463ffffffff1680630780b7c514610094578063303773f0146100d557806366c19bcd146101025780639ff3faf014610157578063e3f09bfd1461018b578063e80423c8146101bf575b600080fd5b8180156100a057600080fd5b506100bf600480360381019080803590602001909291905050506101f3565b6040518082815260200191505060405180910390f35b8180156100e157600080fd5b50610100600480360381019080803590602001909291905050506102f6565b005b610136600480360381019080803590602001909291908035906020019092919080351515906020019092919050505061063f565b60405180831515151581526020018281526020019250505060405180910390f35b6101756004803603810190808035906020019092919050505061072e565b6040518082815260200191505060405180910390f35b6101a96004803603810190808035906020019092919050505061075d565b6040518082815260200191505060405180910390f35b6101dd600480360381019080803590602001909291905050506107ab565b6040518082815260200191505060405180910390f35b60008060008060008091505b85805490508210156102e65761022f86878481548110151561021d57fe5b9060005260206000200154600061063f565b8094508195505050828211156102d9578190505b600186805490500381101561029757856001820181548110151561026357fe5b9060005260206000200154868281548110151561027c57fe5b90600052602060002001819055508080600101915050610243565b8560018780549050038154811015156102ac57fe5b9060005260206000200160009055858054809190600190036102ce919061082c565b508180600190039250505b81806001019250506101ff565b8580549050945050505050919050565b600080600080600080600060018880549050039650610314876107f9565b95508594505b6000861015156104765785945061033086610817565b93505b868411151561045d57600184019250849150878481548110151561035357fe5b9060005260206000200154888381548110151561036c57fe5b90600052602060002001541015610381578391505b8683111580156103c05750878381548110151561039a57fe5b906000526020600020015488838154811015156103b357fe5b9060005260206000200154105b156103c9578291505b848214156103dc57600187019350610458565b87828154811015156103ea57fe5b90600052602060002001549050878581548110151561040557fe5b9060005260206000200154888381548110151561041e57fe5b906000526020600020018190555080888681548110151561043b57fe5b906000526020600020018190555081945061045585610817565b93505b610333565b600086141561046b57610476565b60018603955061031a565b5b600087111561063557878781548110151561048e57fe5b906000526020600020015490508760008154811015156104aa57fe5b906000526020600020015488888154811015156104c357fe5b9060005260206000200181905550808860008154811015156104e157fe5b9060005260206000200181905550600187039650600094506105036000610817565b93505b868411151561063057600184019250849150878481548110151561052657fe5b9060005260206000200154888381548110151561053f57fe5b90600052602060002001541015610554578391505b8683111580156105935750878381548110151561056d57fe5b9060005260206000200154888381548110151561058657fe5b9060005260206000200154105b1561059c578291505b848214156105af5760018701935061062b565b87828154811015156105bd57fe5b9060005260206000200154905087858154811015156105d857fe5b906000526020600020015488838154811015156105f157fe5b906000526020600020018190555080888681548110151561060e57fe5b906000526020600020018190555081945061062885610817565b93505b610506565b610477565b5050505050505050565b60008084606052826001811461065c57600081146106e857610725565b60018654036000805b82811115156106e0576002838201049150878260206060200154106001811461069557600081146106a0576106da565b6001830191506106da565b88836020606020015411600181146106bf57600081146106ca576106d8565b6001840394506106d8565b600197508396506001850192505b505b50610665565b505050610725565b60005b865481101561072357858160206060200154146001811461070b57610717565b60019450819350875491505b506001810190506106eb565b505b50935093915050565b60008160605260005b825481101561075757818160206060200154019150600181019050610737565b50919050565b600081606052602060602054905060005b82548110156107a557818160206060200154116001811461078e57610799565b816020606020015492505b5060018101905061076e565b50919050565b600081606052602060602054905060005b82548110156107f35781816020606020015411600081146107dc576107e7565b816020606020015492505b506001810190506107bc565b50919050565b60008060018303905060028181151561080e57fe5b04915050919050565b60008060028302905060018101915050919050565b815481835581811115610853578183600052602060002091820191016108529190610858565b5b505050565b61087a91905b8082111561087657600081600090555060010161085e565b5090565b905600a165627a7a72305820dfd0bba38151806a40b493cf37a61c2c19c9017f48b436d87faae6149f0959ab0029",
  "source": "pragma solidity ^0.4.18;\n\n/**\n * @title Array256 Library\n * @author Modular Inc, https://modular.network\n *\n * version 1.1.0\n * Copyright (c) 2017 Modular, Inc\n * The MIT License (MIT)\n * https://github.com/Modular-Network/ethereum-libraries/blob/master/LICENSE\n *\n * The Array256 Library provides a few utility functions to work with\n * storage uint256[] types in place. Modular provides smart contract services\n * and security reviews for contract deployments in addition to working on open\n * source projects in the Ethereum community. Our purpose is to test, document,\n * and deploy reusable code onto the blockchain and improve both security and\n * usability. We also educate non-profits, schools, and other community members\n * about the application of blockchain technology.\n * For further information: modular.network\n *\n * THE SOFTWARE IS PROVIDED \"AS IS\", WITHOUT WARRANTY OF ANY KIND, EXPRESS\n * OR IMPLIED, INCLUDING BUT NOT LIMITED TO THE WARRANTIES OF\n * MERCHANTABILITY, FITNESS FOR A PARTICULAR PURPOSE AND NONINFRINGEMENT.\n * IN NO EVENT SHALL THE AUTHORS OR COPYRIGHT HOLDERS BE LIABLE FOR ANY\n * CLAIM, DAMAGES OR OTHER LIABILITY, WHETHER IN AN ACTION OF CONTRACT,\n * TORT OR OTHERWISE, ARISING FROM, OUT OF OR IN CONNECTION WITH THE\n * SOFTWARE OR THE USE OR OTHER DEALINGS IN THE SOFTWARE.\n */\n\nlibrary Array256Lib {\n\n  /// @dev Sum vector\n  /// @param self Storage array containing uint256 type variables\n  /// @return sum The sum of all elements, does not check for overflow\n  function sumElements(uint256[] storage self) public view returns(uint256 sum) {\n    assembly {\n      mstore(0x60,self_slot)\n\n      for { let i := 0 } lt(i, sload(self_slot)) { i := add(i, 1) } {\n        sum := add(sload(add(sha3(0x60,0x20),i)),sum)\n      }\n    }\n  }\n\n  /// @dev Returns the max value in an array.\n  /// @param self Storage array containing uint256 type variables\n  /// @return maxValue The highest value in the array\n  function getMax(uint256[] storage self) public view returns(uint256 maxValue) {\n    assembly {\n      mstore(0x60,self_slot)\n      maxValue := sload(sha3(0x60,0x20))\n\n      for { let i := 0 } lt(i, sload(self_slot)) { i := add(i, 1) } {\n        switch gt(sload(add(sha3(0x60,0x20),i)), maxValue)\n        case 1 {\n          maxValue := sload(add(sha3(0x60,0x20),i))\n        }\n      }\n    }\n  }\n\n  /// @dev Returns the minimum value in an array.\n  /// @param self Storage array containing uint256 type variables\n  /// @return minValue The highest value in the array\n  function getMin(uint256[] storage self) public view returns(uint256 minValue) {\n    assembly {\n      mstore(0x60,self_slot)\n      minValue := sload(sha3(0x60,0x20))\n\n      for { let i := 0 } lt(i, sload(self_slot)) { i := add(i, 1) } {\n        switch gt(sload(add(sha3(0x60,0x20),i)), minValue)\n        case 0 {\n          minValue := sload(add(sha3(0x60,0x20),i))\n        }\n      }\n    }\n  }\n\n  /// @dev Finds the index of a given value in an array\n  /// @param self Storage array containing uint256 type variables\n  /// @param value The value to search for\n  /// @param isSorted True if the array is sorted, false otherwise\n  /// @return found True if the value was found, false otherwise\n  /// @return index The index of the given value, returns 0 if found is false\n  function indexOf(uint256[] storage self, uint256 value, bool isSorted)\n           public\n           view\n           returns(bool found, uint256 index) {\n    assembly{\n      mstore(0x60,self_slot)\n      switch isSorted\n      case 1 {\n        let high := sub(sload(self_slot),1)\n        let mid := 0\n        let low := 0\n        for { } iszero(gt(low, high)) { } {\n          mid := div(add(low,high),2)\n\n          switch lt(sload(add(sha3(0x60,0x20),mid)),value)\n          case 1 {\n             low := add(mid,1)\n          }\n          case 0 {\n            switch gt(sload(add(sha3(0x60,0x20),mid)),value)\n            case 1 {\n              high := sub(mid,1)\n            }\n            case 0 {\n              found := 1\n              index := mid\n              low := add(high,1)\n            }\n          }\n        }\n      }\n      case 0 {\n        for { let low := 0 } lt(low, sload(self_slot)) { low := add(low, 1) } {\n          switch eq(sload(add(sha3(0x60,0x20),low)), value)\n          case 1 {\n            found := 1\n            index := low\n            low := sload(self_slot)\n          }\n        }\n      }\n    }\n  }\n\n  /// @dev Utility function for heapSort\n  /// @param index The index of child node\n  /// @return pI The parent node index\n  function getParentI(uint256 index) private pure returns (uint256 pI) {\n    uint256 i = index - 1;\n    pI = i/2;\n  }\n\n  /// @dev Utility function for heapSort\n  /// @param index The index of parent node\n  /// @return lcI The index of left child\n  function getLeftChildI(uint256 index) private pure returns (uint256 lcI) {\n    uint256 i = index * 2;\n    lcI = i + 1;\n  }\n\n  /// @dev Sorts given array in place\n  /// @param self Storage array containing uint256 type variables\n  function heapSort(uint256[] storage self) public {\n    uint256 end = self.length - 1;\n    uint256 start = getParentI(end);\n    uint256 root = start;\n    uint256 lChild;\n    uint256 rChild;\n    uint256 swap;\n    uint256 temp;\n    while(start >= 0){\n      root = start;\n      lChild = getLeftChildI(start);\n      while(lChild <= end){\n        rChild = lChild + 1;\n        swap = root;\n        if(self[swap] < self[lChild])\n          swap = lChild;\n        if((rChild <= end) && (self[swap]<self[rChild]))\n          swap = rChild;\n        if(swap == root)\n          lChild = end+1;\n        else {\n          temp = self[swap];\n          self[swap] = self[root];\n          self[root] = temp;\n          root = swap;\n          lChild = getLeftChildI(root);\n        }\n      }\n      if(start == 0)\n        break;\n      else\n        start = start - 1;\n    }\n    while(end > 0){\n      temp = self[end];\n      self[end] = self[0];\n      self[0] = temp;\n      end = end - 1;\n      root = 0;\n      lChild = getLeftChildI(0);\n      while(lChild <= end){\n        rChild = lChild + 1;\n        swap = root;\n        if(self[swap] < self[lChild])\n          swap = lChild;\n        if((rChild <= end) && (self[swap]<self[rChild]))\n          swap = rChild;\n        if(swap == root)\n          lChild = end + 1;\n        else {\n          temp = self[swap];\n          self[swap] = self[root];\n          self[root] = temp;\n          root = swap;\n          lChild = getLeftChildI(root);\n        }\n      }\n    }\n  }\n\n  /// @dev Removes duplicates from a given array.\n  /// @param self Storage array containing uint256 type variables\n  function uniq(uint256[] storage self) public returns (uint256 length) {\n    bool contains;\n    uint256 index;\n\n    for (uint256 i = 0; i < self.length; i++) {\n      (contains, index) = indexOf(self, self[i], false);\n\n      if (i > index) {\n        for (uint256 j = i; j < self.length - 1; j++){\n          self[j] = self[j + 1];\n        }\n\n        delete self[self.length - 1];\n        self.length--;\n        i--;\n      }\n    }\n\n    length = self.length;\n  }\n}",
  "sourcePath": "/Users/saintway/JHub/demo-ethereum-dapp/mecenas/contracts/libraries/Array256Lib.sol",
  "compiler": {
    "name": "solc",
    "version": "0.4.24+commit.e67f0147.Emscripten.clang"
  },
  "schemaVersion": "3.3.2",
  "updatedAt": "2020-11-14T02:05:14.227Z",
  "networkType": "ethereum",
  "devdoc": {
    "author": "Modular Inc, https://modular.network * version 1.1.0 Copyright (c) 2017 Modular, Inc The MIT License (MIT) https://github.com/Modular-Network/ethereum-libraries/blob/master/LICENSE * The Array256 Library provides a few utility functions to work with storage uint256[] types in place. Modular provides smart contract services and security reviews for contract deployments in addition to working on open source projects in the Ethereum community. Our purpose is to test, document, and deploy reusable code onto the blockchain and improve both security and usability. We also educate non-profits, schools, and other community members about the application of blockchain technology. For further information: modular.network * THE SOFTWARE IS PROVIDED \"AS IS\", WITHOUT WARRANTY OF ANY KIND, EXPRESS OR IMPLIED, INCLUDING BUT NOT LIMITED TO THE WARRANTIES OF MERCHANTABILITY, FITNESS FOR A PARTICULAR PURPOSE AND NONINFRINGEMENT. IN NO EVENT SHALL THE AUTHORS OR COPYRIGHT HOLDERS BE LIABLE FOR ANY CLAIM, DAMAGES OR OTHER LIABILITY, WHETHER IN AN ACTION OF CONTRACT, TORT OR OTHERWISE, ARISING FROM, OUT OF OR IN CONNECTION WITH THE SOFTWARE OR THE USE OR OTHER DEALINGS IN THE SOFTWARE.",
    "methods": {
      "getMax(uint256[] storage)": {
        "details": "Returns the max value in an array.",
        "params": {
          "self": "Storage array containing uint256 type variables"
        },
        "return": "maxValue The highest value in the array"
      },
      "getMin(uint256[] storage)": {
        "details": "Returns the minimum value in an array.",
        "params": {
          "self": "Storage array containing uint256 type variables"
        },
        "return": "minValue The highest value in the array"
      },
      "heapSort(uint256[] storage)": {
        "details": "Sorts given array in place",
        "params": {
          "self": "Storage array containing uint256 type variables"
        }
      },
      "indexOf(uint256[] storage,uint256,bool)": {
        "details": "Finds the index of a given value in an array",
        "params": {
          "isSorted": "True if the array is sorted, false otherwise",
          "self": "Storage array containing uint256 type variables",
          "value": "The value to search for"
        },
        "return": "found True if the value was found, false otherwiseindex The index of the given value, returns 0 if found is false"
      },
      "sumElements(uint256[] storage)": {
        "details": "Sum vector",
        "params": {
          "self": "Storage array containing uint256 type variables"
        },
        "return": "sum The sum of all elements, does not check for overflow"
      },
      "uniq(uint256[] storage)": {
        "details": "Removes duplicates from a given array.",
        "params": {
          "self": "Storage array containing uint256 type variables"
        }
      }
    },
    "title": "Array256 Library"
  },
  "userdoc": {
    "methods": {}
  }
}