{
  "contractName": "Mecenas",
  "abi": [
    {
      "constant": true,
      "inputs": [
        {
          "name": "",
          "type": "address"
        },
        {
          "name": "",
          "type": "uint256"
        }
      ],
      "name": "messageInbox",
      "outputs": [
        {
          "name": "mecenasNick",
          "type": "bytes32"
        },
        {
          "name": "mecenasAddress",
          "type": "address"
        },
        {
          "name": "contentCreatorAddress",
          "type": "address"
        },
        {
          "name": "message",
          "type": "string"
        },
        {
          "name": "subscriptions",
          "type": "uint256"
        },
        {
          "name": "priceTier",
          "type": "uint256"
        }
      ],
      "payable": false,
      "stateMutability": "view",
      "type": "function"
    },
    {
      "constant": true,
      "inputs": [
        {
          "name": "",
          "type": "bytes32"
        }
      ],
      "name": "contentCreatorAddresses",
      "outputs": [
        {
          "name": "",
          "type": "address"
        }
      ],
      "payable": false,
      "stateMutability": "view",
      "type": "function"
    },
    {
      "constant": false,
      "inputs": [],
      "name": "unpause",
      "outputs": [],
      "payable": false,
      "stateMutability": "nonpayable",
      "type": "function"
    },
    {
      "constant": true,
      "inputs": [
        {
          "name": "",
          "type": "address"
        },
        {
          "name": "",
          "type": "uint256"
        }
      ],
      "name": "mecenasBadges",
      "outputs": [
        {
          "name": "tokenId",
          "type": "uint256"
        },
        {
          "name": "contentCreatorAddress",
          "type": "address"
        }
      ],
      "payable": false,
      "stateMutability": "view",
      "type": "function"
    },
    {
      "constant": true,
      "inputs": [],
      "name": "paused",
      "outputs": [
        {
          "name": "",
          "type": "bool"
        }
      ],
      "payable": false,
      "stateMutability": "view",
      "type": "function"
    },
    {
      "constant": true,
      "inputs": [
        {
          "name": "",
          "type": "address"
        }
      ],
      "name": "mecenas",
      "outputs": [
        {
          "name": "nickname",
          "type": "bytes32"
        }
      ],
      "payable": false,
      "stateMutability": "view",
      "type": "function"
    },
    {
      "constant": false,
      "inputs": [],
      "name": "renounceOwnership",
      "outputs": [],
      "payable": false,
      "stateMutability": "nonpayable",
      "type": "function"
    },
    {
      "constant": true,
      "inputs": [],
      "name": "feePercent",
      "outputs": [
        {
          "name": "",
          "type": "uint256"
        }
      ],
      "payable": false,
      "stateMutability": "view",
      "type": "function"
    },
    {
      "constant": false,
      "inputs": [],
      "name": "destroy",
      "outputs": [],
      "payable": false,
      "stateMutability": "nonpayable",
      "type": "function"
    },
    {
      "constant": false,
      "inputs": [],
      "name": "pause",
      "outputs": [],
      "payable": false,
      "stateMutability": "nonpayable",
      "type": "function"
    },
    {
      "constant": true,
      "inputs": [],
      "name": "owner",
      "outputs": [
        {
          "name": "",
          "type": "address"
        }
      ],
      "payable": false,
      "stateMutability": "view",
      "type": "function"
    },
    {
      "constant": true,
      "inputs": [],
      "name": "fixedFee",
      "outputs": [
        {
          "name": "",
          "type": "uint256"
        }
      ],
      "payable": false,
      "stateMutability": "view",
      "type": "function"
    },
    {
      "constant": true,
      "inputs": [],
      "name": "badgesLedger",
      "outputs": [
        {
          "name": "",
          "type": "address"
        }
      ],
      "payable": false,
      "stateMutability": "view",
      "type": "function"
    },
    {
      "constant": true,
      "inputs": [
        {
          "name": "",
          "type": "address"
        }
      ],
      "name": "contentCreators",
      "outputs": [
        {
          "name": "nickname",
          "type": "bytes32"
        },
        {
          "name": "description",
          "type": "string"
        },
        {
          "name": "creationTimestamp",
          "type": "uint256"
        },
        {
          "name": "subscriptionIndex",
          "type": "uint256"
        },
        {
          "name": "payday",
          "type": "uint256"
        },
        {
          "name": "balance",
          "type": "uint256"
        },
        {
          "name": "ipfsAvatar",
          "type": "string"
        }
      ],
      "payable": false,
      "stateMutability": "view",
      "type": "function"
    },
    {
      "constant": true,
      "inputs": [],
      "name": "ownerBalance",
      "outputs": [
        {
          "name": "",
          "type": "uint256"
        }
      ],
      "payable": false,
      "stateMutability": "view",
      "type": "function"
    },
    {
      "constant": true,
      "inputs": [
        {
          "name": "",
          "type": "address"
        },
        {
          "name": "",
          "type": "uint256"
        }
      ],
      "name": "suggestPriceTiers",
      "outputs": [
        {
          "name": "price",
          "type": "uint256"
        },
        {
          "name": "title",
          "type": "string"
        },
        {
          "name": "description",
          "type": "string"
        }
      ],
      "payable": false,
      "stateMutability": "view",
      "type": "function"
    },
    {
      "constant": false,
      "inputs": [
        {
          "name": "_newOwner",
          "type": "address"
        }
      ],
      "name": "transferOwnership",
      "outputs": [],
      "payable": false,
      "stateMutability": "nonpayable",
      "type": "function"
    },
    {
      "constant": false,
      "inputs": [
        {
          "name": "_recipient",
          "type": "address"
        }
      ],
      "name": "destroyAndSend",
      "outputs": [],
      "payable": false,
      "stateMutability": "nonpayable",
      "type": "function"
    },
    {
      "inputs": [],
      "payable": false,
      "stateMutability": "nonpayable",
      "type": "constructor"
    },
    {
      "anonymous": false,
      "inputs": [
        {
          "indexed": false,
          "name": "contentCreatorAddress",
          "type": "address"
        },
        {
          "indexed": false,
          "name": "mecenasNickname",
          "type": "bytes32"
        },
        {
          "indexed": false,
          "name": "mecenasMessage",
          "type": "string"
        }
      ],
      "name": "newSubscriptionMessage",
      "type": "event"
    },
    {
      "anonymous": false,
      "inputs": [
        {
          "indexed": false,
          "name": "contentCreatorAddress",
          "type": "address"
        },
        {
          "indexed": false,
          "name": "nickname",
          "type": "bytes32"
        },
        {
          "indexed": false,
          "name": "ipfsAvatar",
          "type": "string"
        }
      ],
      "name": "newContentCreator",
      "type": "event"
    },
    {
      "anonymous": false,
      "inputs": [],
      "name": "Pause",
      "type": "event"
    },
    {
      "anonymous": false,
      "inputs": [],
      "name": "Unpause",
      "type": "event"
    },
    {
      "anonymous": false,
      "inputs": [
        {
          "indexed": true,
          "name": "previousOwner",
          "type": "address"
        }
      ],
      "name": "OwnershipRenounced",
      "type": "event"
    },
    {
      "anonymous": false,
      "inputs": [
        {
          "indexed": true,
          "name": "previousOwner",
          "type": "address"
        },
        {
          "indexed": true,
          "name": "newOwner",
          "type": "address"
        }
      ],
      "name": "OwnershipTransferred",
      "type": "event"
    },
    {
      "constant": false,
      "inputs": [
        {
          "name": "badgesLedgerAddress",
          "type": "address"
        }
      ],
      "name": "setBadgesLedgerContract",
      "outputs": [],
      "payable": false,
      "stateMutability": "nonpayable",
      "type": "function"
    },
    {
      "constant": true,
      "inputs": [],
      "name": "getMinimumAmount",
      "outputs": [
        {
          "name": "",
          "type": "uint256"
        }
      ],
      "payable": false,
      "stateMutability": "view",
      "type": "function"
    },
    {
      "constant": true,
      "inputs": [
        {
          "name": "amount",
          "type": "uint256"
        }
      ],
      "name": "greaterThanMinimumAmount",
      "outputs": [
        {
          "name": "",
          "type": "bool"
        }
      ],
      "payable": false,
      "stateMutability": "view",
      "type": "function"
    },
    {
      "constant": false,
      "inputs": [
        {
          "name": "newFee",
          "type": "uint256"
        }
      ],
      "name": "setPercentFee",
      "outputs": [],
      "payable": false,
      "stateMutability": "nonpayable",
      "type": "function"
    },
    {
      "constant": false,
      "inputs": [
        {
          "name": "newFee",
          "type": "uint256"
        }
      ],
      "name": "setFixedFee",
      "outputs": [],
      "payable": false,
      "stateMutability": "nonpayable",
      "type": "function"
    },
    {
      "constant": false,
      "inputs": [],
      "name": "withdrawFees",
      "outputs": [],
      "payable": false,
      "stateMutability": "nonpayable",
      "type": "function"
    },
    {
      "constant": true,
      "inputs": [
        {
          "name": "contentCreatorAddress",
          "type": "address"
        }
      ],
      "name": "getTiersLength",
      "outputs": [
        {
          "name": "",
          "type": "uint256"
        }
      ],
      "payable": false,
      "stateMutability": "view",
      "type": "function"
    },
    {
      "constant": true,
      "inputs": [
        {
          "name": "contentCreatorAddress",
          "type": "address"
        },
        {
          "name": "index",
          "type": "uint256"
        }
      ],
      "name": "getTier",
      "outputs": [
        {
          "name": "title",
          "type": "string"
        },
        {
          "name": "description",
          "type": "string"
        },
        {
          "name": "price",
          "type": "uint256"
        }
      ],
      "payable": false,
      "stateMutability": "view",
      "type": "function"
    },
    {
      "constant": true,
      "inputs": [
        {
          "name": "addressInput",
          "type": "address"
        }
      ],
      "name": "getContentCreator",
      "outputs": [
        {
          "name": "nickname",
          "type": "bytes32"
        },
        {
          "name": "description",
          "type": "string"
        },
        {
          "name": "creationTimestamp",
          "type": "uint256"
        },
        {
          "name": "payday",
          "type": "uint256"
        },
        {
          "name": "balance",
          "type": "uint256"
        },
        {
          "name": "ipfsAvatar",
          "type": "string"
        },
        {
          "name": "totalMecenas",
          "type": "uint256"
        },
        {
          "name": "contentCreatorAddress",
          "type": "address"
        },
        {
          "name": "wage",
          "type": "uint256"
        }
      ],
      "payable": false,
      "stateMutability": "view",
      "type": "function"
    },
    {
      "constant": true,
      "inputs": [
        {
          "name": "nickname",
          "type": "bytes32"
        }
      ],
      "name": "getContentCreatorAddress",
      "outputs": [
        {
          "name": "contentCreatorAddress",
          "type": "address"
        }
      ],
      "payable": false,
      "stateMutability": "view",
      "type": "function"
    },
    {
      "constant": true,
      "inputs": [
        {
          "name": "nick",
          "type": "bytes32"
        }
      ],
      "name": "getContentCreatorByNickname",
      "outputs": [
        {
          "name": "nickname",
          "type": "bytes32"
        },
        {
          "name": "description",
          "type": "string"
        },
        {
          "name": "creationTimestamp",
          "type": "uint256"
        },
        {
          "name": "payday",
          "type": "uint256"
        },
        {
          "name": "balance",
          "type": "uint256"
        },
        {
          "name": "ipfsAvatar",
          "type": "string"
        },
        {
          "name": "totalMecenas",
          "type": "uint256"
        },
        {
          "name": "contentCreatorAddress",
          "type": "address"
        },
        {
          "name": "wage",
          "type": "uint256"
        }
      ],
      "payable": false,
      "stateMutability": "view",
      "type": "function"
    },
    {
      "constant": false,
      "inputs": [
        {
          "name": "nickname",
          "type": "bytes32"
        },
        {
          "name": "description",
          "type": "string"
        },
        {
          "name": "ipfsAvatar",
          "type": "string"
        }
      ],
      "name": "contentCreatorFactory",
      "outputs": [],
      "payable": false,
      "stateMutability": "nonpayable",
      "type": "function"
    },
    {
      "constant": false,
      "inputs": [
        {
          "name": "newAddress",
          "type": "address"
        }
      ],
      "name": "changeContentCreatorAddress",
      "outputs": [],
      "payable": false,
      "stateMutability": "nonpayable",
      "type": "function"
    },
    {
      "constant": false,
      "inputs": [
        {
          "name": "avatarHash",
          "type": "string"
        }
      ],
      "name": "changeAvatar",
      "outputs": [],
      "payable": false,
      "stateMutability": "nonpayable",
      "type": "function"
    },
    {
      "constant": false,
      "inputs": [
        {
          "name": "tierIndex",
          "type": "uint256"
        },
        {
          "name": "title",
          "type": "string"
        },
        {
          "name": "description",
          "type": "string"
        },
        {
          "name": "price",
          "type": "uint256"
        }
      ],
      "name": "changeContentCreatorTiers",
      "outputs": [],
      "payable": false,
      "stateMutability": "nonpayable",
      "type": "function"
    },
    {
      "constant": false,
      "inputs": [
        {
          "name": "description",
          "type": "string"
        }
      ],
      "name": "changeDescription",
      "outputs": [],
      "payable": false,
      "stateMutability": "nonpayable",
      "type": "function"
    },
    {
      "constant": true,
      "inputs": [
        {
          "name": "contentCreatorAddress",
          "type": "address"
        }
      ],
      "name": "calculateNextWage",
      "outputs": [
        {
          "name": "",
          "type": "uint256"
        }
      ],
      "payable": false,
      "stateMutability": "view",
      "type": "function"
    },
    {
      "constant": false,
      "inputs": [],
      "name": "monthlyWithdraw",
      "outputs": [],
      "payable": false,
      "stateMutability": "nonpayable",
      "type": "function"
    },
    {
      "constant": false,
      "inputs": [
        {
          "name": "contentCreatorAddress",
          "type": "address"
        },
        {
          "name": "subscriptions",
          "type": "uint256"
        },
        {
          "name": "message",
          "type": "string"
        },
        {
          "name": "mecenasNickname",
          "type": "bytes32"
        }
      ],
      "name": "supportContentCreator",
      "outputs": [],
      "payable": true,
      "stateMutability": "payable",
      "type": "function"
    }
  ],
  "bytecode": "0x608060405260008060146101000a81548160ff02191690831515021790555034801561002a57600080fd5b50336000806101000a81548173ffffffffffffffffffffffffffffffffffffffff021916908373ffffffffffffffffffffffffffffffffffffffff16021790555033600160006101000a81548173ffffffffffffffffffffffffffffffffffffffff021916908373ffffffffffffffffffffffffffffffffffffffff1602179055506001600481905550660221b262dd8000600581905550614910806100d16000396000f3006080604052600436106101cd576000357c0100000000000000000000000000000000000000000000000000000000900463ffffffff16806301696b28146101d25780630287ddcc1461023b578063055010231461027e5780630bfea288146102ab57806315c69981146103f45780632c70eef81461052d578063302ec3a31461059e57806337de81061461060f5780633b084c831461063c5780633f4ba83a14610693578063476343ee146106aa578063564954a1146106c15780635c975abb1461075557806362066eb3146107845780636aeab80c146107af5780636d6914181461080e578063715018a61461085157806379948571146108685780637fd6f15c146109f557806380be5fda14610a2057806383197ef014610a655780638456cb5914610a7c5780638da5cb5b14610a9357806391792d5b14610aea57806395bd39d714610b15578063a4c3b17214610b2c578063a95e8dea14610b83578063b4e9eb7214610cd6578063bedcf00314610d6a578063c964df7814610d95578063d7c522d514610e52578063e612041314610f8b578063efdaea6814610ff4578063f2fde38b146110b7578063f5074f41146110fa578063fb65b79d1461113d578063fedc6b6d146112b8575b600080fd5b3480156101de57600080fd5b50610239600480360381019080803590602001908201803590602001908080601f016020809104026020016040519081016040528093929190818152602001838380828437820191505050505050919291929050505061130f565b005b34801561024757600080fd5b5061027c600480360381019080803573ffffffffffffffffffffffffffffffffffffffff16906020019092919050505061139d565b005b34801561028a57600080fd5b506102a96004803603810190808035906020019092919050505061183e565b005b3480156102b757600080fd5b506102f6600480360381019080803573ffffffffffffffffffffffffffffffffffffffff169060200190929190803590602001909291905050506118a3565b6040518087600019166000191681526020018673ffffffffffffffffffffffffffffffffffffffff1673ffffffffffffffffffffffffffffffffffffffff1681526020018573ffffffffffffffffffffffffffffffffffffffff1673ffffffffffffffffffffffffffffffffffffffff16815260200180602001848152602001838152602001828103825285818151815260200191508051906020019080838360005b838110156103b4578082015181840152602081019050610399565b50505050905090810190601f1680156103e15780820380516001836020036101000a031916815260200191505b5097505050505050505060405180910390f35b34801561040057600080fd5b5061043f600480360381019080803573ffffffffffffffffffffffffffffffffffffffff169060200190929190803590602001909291905050506119d3565b604051808060200180602001848152602001838103835286818151815260200191508051906020019080838360005b8381101561048957808201518184015260208101905061046e565b50505050905090810190601f1680156104b65780820380516001836020036101000a031916815260200191505b50838103825285818151815260200191508051906020019080838360005b838110156104ef5780820151818401526020810190506104d4565b50505050905090810190601f16801561051c5780820380516001836020036101000a031916815260200191505b509550505050505060405180910390f35b34801561053957600080fd5b5061055c6004803603810190808035600019169060200190929190505050611ba9565b604051808273ffffffffffffffffffffffffffffffffffffffff1673ffffffffffffffffffffffffffffffffffffffff16815260200191505060405180910390f35b3480156105aa57600080fd5b506105cd6004803603810190808035600019169060200190929190505050611bdc565b604051808273ffffffffffffffffffffffffffffffffffffffff1673ffffffffffffffffffffffffffffffffffffffff16815260200191505060405180910390f35b34801561061b57600080fd5b5061063a60048036038101908080359060200190929190505050611c21565b005b34801561064857600080fd5b5061067d600480360381019080803573ffffffffffffffffffffffffffffffffffffffff169060200190929190505050611c86565b6040518082815260200191505060405180910390f35b34801561069f57600080fd5b506106a8611d92565b005b3480156106b657600080fd5b506106bf611e50565b005b3480156106cd57600080fd5b5061070c600480360381019080803573ffffffffffffffffffffffffffffffffffffffff16906020019092919080359060200190929190505050611f0c565b604051808381526020018273ffffffffffffffffffffffffffffffffffffffff1673ffffffffffffffffffffffffffffffffffffffff1681526020019250505060405180910390f35b34801561076157600080fd5b5061076a611f6c565b604051808215151515815260200191505060405180910390f35b34801561079057600080fd5b50610799611f7f565b6040518082815260200191505060405180910390f35b3480156107bb57600080fd5b506107f0600480360381019080803573ffffffffffffffffffffffffffffffffffffffff169060200190929190505050611fc4565b60405180826000191660001916815260200191505060405180910390f35b34801561081a57600080fd5b5061084f600480360381019080803573ffffffffffffffffffffffffffffffffffffffff169060200190929190505050611fe2565b005b34801561085d57600080fd5b50610866612081565b005b34801561087457600080fd5b506108a9600480360381019080803573ffffffffffffffffffffffffffffffffffffffff169060200190929190505050612183565b604051808a6000191660001916815260200180602001898152602001888152602001878152602001806020018681526020018573ffffffffffffffffffffffffffffffffffffffff1673ffffffffffffffffffffffffffffffffffffffff16815260200184815260200183810383528b818151815260200191508051906020019080838360005b8381101561094b578082015181840152602081019050610930565b50505050905090810190601f1680156109785780820380516001836020036101000a031916815260200191505b50838103825287818151815260200191508051906020019080838360005b838110156109b1578082015181840152602081019050610996565b50505050905090810190601f1680156109de5780820380516001836020036101000a031916815260200191505b509b50505050505050505050505060405180910390f35b348015610a0157600080fd5b50610a0a612443565b6040518082815260200191505060405180910390f35b348015610a2c57600080fd5b50610a4b60048036038101908080359060200190929190505050612449565b604051808215151515815260200191505060405180910390f35b348015610a7157600080fd5b50610a7a61245c565b005b348015610a8857600080fd5b50610a916124f1565b005b348015610a9f57600080fd5b50610aa86125b1565b604051808273ffffffffffffffffffffffffffffffffffffffff1673ffffffffffffffffffffffffffffffffffffffff16815260200191505060405180910390f35b348015610af657600080fd5b50610aff6125d7565b6040518082815260200191505060405180910390f35b348015610b2157600080fd5b50610b2a6125dd565b005b348015610b3857600080fd5b50610b4161279e565b604051808273ffffffffffffffffffffffffffffffffffffffff1673ffffffffffffffffffffffffffffffffffffffff16815260200191505060405180910390f35b348015610b8f57600080fd5b50610bc4600480360381019080803573ffffffffffffffffffffffffffffffffffffffff1690602001909291905050506127c4565b6040518088600019166000191681526020018060200187815260200186815260200185815260200184815260200180602001838103835289818151815260200191508051906020019080838360005b83811015610c2e578082015181840152602081019050610c13565b50505050905090810190601f168015610c5b5780820380516001836020036101000a031916815260200191505b50838103825284818151815260200191508051906020019080838360005b83811015610c94578082015181840152602081019050610c79565b50505050905090810190601f168015610cc15780820380516001836020036101000a031916815260200191505b50995050505050505050505060405180910390f35b610d68600480360381019080803573ffffffffffffffffffffffffffffffffffffffff16906020019092919080359060200190929190803590602001908201803590602001908080601f01602080910402602001604051908101604052809392919081815260200183838082843782019150505050505091929192908035600019169060200190929190505050612936565b005b348015610d7657600080fd5b50610d7f6130d7565b6040518082815260200191505060405180910390f35b348015610da157600080fd5b50610e506004803603810190808035600019169060200190929190803590602001908201803590602001908080601f0160208091040260200160405190810160405280939291908181526020018383808284378201915050505050509192919290803590602001908201803590602001908080601f01602080910402602001604051908101604052809392919081815260200183838082843782019150505050505091929192905050506130dd565b005b348015610e5e57600080fd5b50610e9d600480360381019080803573ffffffffffffffffffffffffffffffffffffffff16906020019092919080359060200190929190505050613383565b604051808481526020018060200180602001838103835285818151815260200191508051906020019080838360005b83811015610ee7578082015181840152602081019050610ecc565b50505050905090810190601f168015610f145780820380516001836020036101000a031916815260200191505b50838103825284818151815260200191508051906020019080838360005b83811015610f4d578082015181840152602081019050610f32565b50505050905090810190601f168015610f7a5780820380516001836020036101000a031916815260200191505b509550505050505060405180910390f35b348015610f9757600080fd5b50610ff2600480360381019080803590602001908201803590602001908080601f01602080910402602001604051908101604052809392919081815260200183838082843782019150505050505091929192905050506134ef565b005b34801561100057600080fd5b506110b560048036038101908080359060200190929190803590602001908201803590602001908080601f0160208091040260200160405190810160405280939291908181526020018383808284378201915050505050509192919290803590602001908201803590602001908080601f01602080910402602001604051908101604052809392919081815260200183838082843782019150505050505091929192908035906020019092919050505061357d565b005b3480156110c357600080fd5b506110f8600480360381019080803573ffffffffffffffffffffffffffffffffffffffff1690602001909291905050506136d4565b005b34801561110657600080fd5b5061113b600480360381019080803573ffffffffffffffffffffffffffffffffffffffff16906020019092919050505061373b565b005b34801561114957600080fd5b5061116c60048036038101908080356000191690602001909291905050506137af565b604051808a6000191660001916815260200180602001898152602001888152602001878152602001806020018681526020018573ffffffffffffffffffffffffffffffffffffffff1673ffffffffffffffffffffffffffffffffffffffff16815260200184815260200183810383528b818151815260200191508051906020019080838360005b8381101561120e5780820151818401526020810190506111f3565b50505050905090810190601f16801561123b5780820380516001836020036101000a031916815260200191505b50838103825287818151815260200191508051906020019080838360005b83811015611274578082015181840152602081019050611259565b50505050905090810190601f1680156112a15780820380516001836020036101000a031916815260200191505b509b50505050505050505050505060405180910390f35b3480156112c457600080fd5b506112f9600480360381019080803573ffffffffffffffffffffffffffffffffffffffff169060200190929190505050613ab3565b6040518082815260200191505060405180910390f35b60008060149054906101000a900460ff1615151561132c57600080fd5b600860003373ffffffffffffffffffffffffffffffffffffffff1673ffffffffffffffffffffffffffffffffffffffff16815260200190815260200160002090506000816004015411151561138057600080fd5b818160060190805190602001906113989291906143fd565b505050565b6113a561447d565b600060149054906101000a900460ff161515156113c157600080fd5b600860003373ffffffffffffffffffffffffffffffffffffffff1673ffffffffffffffffffffffffffffffffffffffff1681526020019081526020016000206101006040519081016040529081600082015460001916600019168152602001600182018054600181600116156101000203166002900480601f0160208091040260200160405190810160405280929190818152602001828054600181600116156101000203166002900480156114b85780601f1061148d576101008083540402835291602001916114b8565b820191906000526020600020905b81548152906001019060200180831161149b57829003601f168201915b5050505050815260200160028201548152602001600382015481526020016004820154815260200160058201548152602001600682018054600181600116156101000203166002900480601f0160208091040260200160405190810160405280929190818152602001828054600181600116156101000203166002900480156115825780601f1061155757610100808354040283529160200191611582565b820191906000526020600020905b81548152906001019060200180831161156557829003601f168201915b505050505081526020016007820180548060200260200160405190810160405280929190818152602001828054801561161057602002820191906000526020600020905b8160009054906101000a900473ffffffffffffffffffffffffffffffffffffffff1673ffffffffffffffffffffffffffffffffffffffff16815260200190600101908083116115c6575b50505050508152505090506000816080015111151561162e57600080fd5b600860003373ffffffffffffffffffffffffffffffffffffffff1673ffffffffffffffffffffffffffffffffffffffff16815260200190815260200160002060008082016000905560018201600061168691906144c6565b60028201600090556003820160009055600482016000905560058201600090556006820160006116b691906144c6565b6007820160006116c6919061450e565b5050600b600082600001516000191660001916815260200190815260200160002060006101000a81549073ffffffffffffffffffffffffffffffffffffffff021916905580600860008473ffffffffffffffffffffffffffffffffffffffff1673ffffffffffffffffffffffffffffffffffffffff16815260200190815260200160002060008201518160000190600019169055602082015181600101908051906020019061177692919061452f565b5060408201518160020155606082015181600301556080820151816004015560a0820151816005015560c08201518160060190805190602001906117bb92919061452f565b5060e08201518160070190805190602001906117d89291906145af565b5090505081600b600083600001516000191660001916815260200190815260200160002060006101000a81548173ffffffffffffffffffffffffffffffffffffffff021916908373ffffffffffffffffffffffffffffffffffffffff1602179055505050565b6000809054906101000a900473ffffffffffffffffffffffffffffffffffffffff1673ffffffffffffffffffffffffffffffffffffffff163373ffffffffffffffffffffffffffffffffffffffff1614151561189957600080fd5b8060048190555050565b6007602052816000526040600020818154811015156118be57fe5b9060005260206000209060060201600091509150508060000154908060010160009054906101000a900473ffffffffffffffffffffffffffffffffffffffff16908060020160009054906101000a900473ffffffffffffffffffffffffffffffffffffffff1690806003018054600181600116156101000203166002900480601f0160208091040260200160405190810160405280929190818152602001828054600181600116156101000203166002900480156119bd5780601f10611992576101008083540402835291602001916119bd565b820191906000526020600020905b8154815290600101906020018083116119a057829003601f168201915b5050505050908060040154908060050154905086565b60608060006119e0614639565b600660008773ffffffffffffffffffffffffffffffffffffffff1673ffffffffffffffffffffffffffffffffffffffff16815260200190815260200160002085600381101515611a2c57fe5b600302016060604051908101604052908160008201548152602001600182018054600181600116156101000203166002900480601f016020809104026020016040519081016040528092919081815260200182805460018160011615610100020316600290048015611adf5780601f10611ab457610100808354040283529160200191611adf565b820191906000526020600020905b815481529060010190602001808311611ac257829003601f168201915b50505050508152602001600282018054600181600116156101000203166002900480601f016020809104026020016040519081016040528092919081815260200182805460018160011615610100020316600290048015611b815780601f10611b5657610100808354040283529160200191611b81565b820191906000526020600020905b815481529060010190602001808311611b6457829003601f168201915b5050505050815250509050806020015193508060400151925080600001519150509250925092565b600b6020528060005260406000206000915054906101000a900473ffffffffffffffffffffffffffffffffffffffff1681565b6000600b6000836000191660001916815260200190815260200160002060009054906101000a900473ffffffffffffffffffffffffffffffffffffffff169050919050565b6000809054906101000a900473ffffffffffffffffffffffffffffffffffffffff1673ffffffffffffffffffffffffffffffffffffffff163373ffffffffffffffffffffffffffffffffffffffff16141515611c7c57600080fd5b8060058190555050565b600080600860008473ffffffffffffffffffffffffffffffffffffffff1673ffffffffffffffffffffffffffffffffffffffff16815260200190815260200160002090508060080160008260030154815260200190815260200160002073__Array256Lib___________________________639ff3faf090916040518263ffffffff167c01000000000000000000000000000000000000000000000000000000000281526004018082815260200191505060206040518083038186803b158015611d4f57600080fd5b505af4158015611d63573d6000803e3d6000fd5b505050506040513d6020811015611d7957600080fd5b8101908080519060200190929190505050915050919050565b6000809054906101000a900473ffffffffffffffffffffffffffffffffffffffff1673ffffffffffffffffffffffffffffffffffffffff163373ffffffffffffffffffffffffffffffffffffffff16141515611ded57600080fd5b600060149054906101000a900460ff161515611e0857600080fd5b60008060146101000a81548160ff0219169083151502179055507f7805862f689e2f13df9f062ff482ad3ad112aca9e0847911ed832e158c525b3360405160405180910390a1565b60008060009054906101000a900473ffffffffffffffffffffffffffffffffffffffff1673ffffffffffffffffffffffffffffffffffffffff163373ffffffffffffffffffffffffffffffffffffffff16141515611ead57600080fd5b6002549050806002600082825403925050819055503373ffffffffffffffffffffffffffffffffffffffff166108fc829081150290604051600060405180830381858888f19350505050158015611f08573d6000803e3d6000fd5b5050565b600a60205281600052604060002081815481101515611f2757fe5b9060005260206000209060020201600091509150508060000154908060010160009054906101000a900473ffffffffffffffffffffffffffffffffffffffff16905082565b600060149054906101000a900460ff1681565b6000611fbf611fae6064611fa0600454600554613afe90919063ffffffff16565b613b3690919063ffffffff16565b600554613b4c90919063ffffffff16565b905090565b60096020528060005260406000206000915090508060000154905081565b6000809054906101000a900473ffffffffffffffffffffffffffffffffffffffff1673ffffffffffffffffffffffffffffffffffffffff163373ffffffffffffffffffffffffffffffffffffffff1614151561203d57600080fd5b80600360006101000a81548173ffffffffffffffffffffffffffffffffffffffff021916908373ffffffffffffffffffffffffffffffffffffffff16021790555050565b6000809054906101000a900473ffffffffffffffffffffffffffffffffffffffff1673ffffffffffffffffffffffffffffffffffffffff163373ffffffffffffffffffffffffffffffffffffffff161415156120dc57600080fd5b6000809054906101000a900473ffffffffffffffffffffffffffffffffffffffff1673ffffffffffffffffffffffffffffffffffffffff167ff8df31144d9c2f0f6b59d69b8b98abd5459d07f2742c4df920b25aae33c6482060405160405180910390a260008060006101000a81548173ffffffffffffffffffffffffffffffffffffffff021916908373ffffffffffffffffffffffffffffffffffffffff160217905550565b6000606060008060006060600080600061219b61447d565b600860008c73ffffffffffffffffffffffffffffffffffffffff1673ffffffffffffffffffffffffffffffffffffffff1681526020019081526020016000206101006040519081016040529081600082015460001916600019168152602001600182018054600181600116156101000203166002900480601f0160208091040260200160405190810160405280929190818152602001828054600181600116156101000203166002900480156122925780601f1061226757610100808354040283529160200191612292565b820191906000526020600020905b81548152906001019060200180831161227557829003601f168201915b5050505050815260200160028201548152602001600382015481526020016004820154815260200160058201548152602001600682018054600181600116156101000203166002900480601f01602080910402602001604051908101604052809291908181526020018280546001816001161561010002031660029004801561235c5780601f106123315761010080835404028352916020019161235c565b820191906000526020600020905b81548152906001019060200180831161233f57829003601f168201915b50505050508152602001600782018054806020026020016040519081016040528092919081815260200182805480156123ea57602002820191906000526020600020905b8160009054906101000a900473ffffffffffffffffffffffffffffffffffffffff1673ffffffffffffffffffffffffffffffffffffffff16815260200190600101908083116123a0575b5050505050815250509050806000015199508060200151985080604001519750806080015196508060a0015195508060c0015194508060e001515193508a92506124338b611c86565b9150509193959799909294969850565b60045481565b6000612453611f7f565b82119050919050565b6000809054906101000a900473ffffffffffffffffffffffffffffffffffffffff1673ffffffffffffffffffffffffffffffffffffffff163373ffffffffffffffffffffffffffffffffffffffff161415156124b757600080fd5b6000809054906101000a900473ffffffffffffffffffffffffffffffffffffffff1673ffffffffffffffffffffffffffffffffffffffff16ff5b6000809054906101000a900473ffffffffffffffffffffffffffffffffffffffff1673ffffffffffffffffffffffffffffffffffffffff163373ffffffffffffffffffffffffffffffffffffffff1614151561254c57600080fd5b600060149054906101000a900460ff1615151561256857600080fd5b6001600060146101000a81548160ff0219169083151502179055507f6985a02210a168e66602d3235cb6db0e70f92b3ba4d376a33c0f3d9434bff62560405160405180910390a1565b600160009054906101000a900473ffffffffffffffffffffffffffffffffffffffff1681565b60055481565b6000806000600860003373ffffffffffffffffffffffffffffffffffffffff1673ffffffffffffffffffffffffffffffffffffffff16815260200190815260200160002092508260080160008460030154815260200190815260200160002073__Array256Lib___________________________639ff3faf090916040518263ffffffff167c01000000000000000000000000000000000000000000000000000000000281526004018082815260200191505060206040518083038186803b1580156126a857600080fd5b505af41580156126bc573d6000803e3d6000fd5b505050506040513d60208110156126d257600080fd5b81019080805190602001909291905050509150826004015442101580156126fd575060008360050154115b151561270857600080fd5b61271f828460050154613b6890919063ffffffff16565b905062278d008360040154018360040181905550600183600301540183600301819055508083600501540383600501819055503373ffffffffffffffffffffffffffffffffffffffff166108fc829081150290604051600060405180830381858888f19350505050158015612798573d6000803e3d6000fd5b50505050565b600360009054906101000a900473ffffffffffffffffffffffffffffffffffffffff1681565b6008602052806000526040600020600091509050806000015490806001018054600181600116156101000203166002900480601f0160208091040260200160405190810160405280929190818152602001828054600181600116156101000203166002900480156128765780601f1061284b57610100808354040283529160200191612876565b820191906000526020600020905b81548152906001019060200180831161285957829003601f168201915b505050505090806002015490806003015490806004015490806005015490806006018054600181600116156101000203166002900480601f01602080910402602001604051908101604052809291908181526020018280546001816001161561010002031660029004801561292c5780601f106129015761010080835404028352916020019161292c565b820191906000526020600020905b81548152906001019060200180831161290f57829003601f168201915b5050505050905087565b600080600080600060608060008060149054906101000a900460ff1615151561295e57600080fd5b600073ffffffffffffffffffffffffffffffffffffffff168c73ffffffffffffffffffffffffffffffffffffffff161415801561299b5750600034115b15156129a657600080fd5b6129ae613b81565b97506129c38b89613b3690919063ffffffff16565b9650600860008d73ffffffffffffffffffffffffffffffffffffffff1673ffffffffffffffffffffffffffffffffffffffff16815260200190815260200160002095506001866003015410151515612a1a57600080fd5b600094505b8a851015612a88578560080160008688600301540181526020019081526020016000208790806001815401808255809150509060018203906000526020600020016000909192909190915055508686600501540186600501819055508480600101955050612a1f565b856007013390806001815401808255809150509060018203906000526020600020016000909192909190916101000a81548173ffffffffffffffffffffffffffffffffffffffff021916908373ffffffffffffffffffffffffffffffffffffffff1602179055505088600960003373ffffffffffffffffffffffffffffffffffffffff1673ffffffffffffffffffffffffffffffffffffffff1681526020019081526020016000206000018160001916905550600960003373ffffffffffffffffffffffffffffffffffffffff1673ffffffffffffffffffffffffffffffffffffffff1681526020019081526020016000206001018c90806001815401808255809150509060018203906000526020600020016000909192909190916101000a81548173ffffffffffffffffffffffffffffffffffffffff021916908373ffffffffffffffffffffffffffffffffffffffff160217905550506001600360009054906101000a900473ffffffffffffffffffffffffffffffffffffffff1673ffffffffffffffffffffffffffffffffffffffff166318160ddd6040518163ffffffff167c0100000000000000000000000000000000000000000000000000000000028152600401602060405180830381600087803b158015612c6957600080fd5b505af1158015612c7d573d6000803e3d6000fd5b505050506040513d6020811015612c9357600080fd5b8101908080519060200190929190505050019350612e8187600660008f73ffffffffffffffffffffffffffffffffffffffff1673ffffffffffffffffffffffffffffffffffffffff168152602001908152602001600020600380602002604051908101604052809291906000905b82821015612e78578382600302016060604051908101604052908160008201548152602001600182018054600181600116156101000203166002900480601f016020809104026020016040519081016040528092919081815260200182805460018160011615610100020316600290048015612dbe5780601f10612d9357610100808354040283529160200191612dbe565b820191906000526020600020905b815481529060010190602001808311612da157829003601f168201915b50505050508152602001600282018054600181600116156101000203166002900480601f016020809104026020016040519081016040528092919081815260200182805460018160011615610100020316600290048015612e605780601f10612e3557610100808354040283529160200191612e60565b820191906000526020600020905b815481529060010190602001808311612e4357829003601f168201915b50505050508152505081526020019060010190612d01565b50505050613c05565b9250829150600360009054906101000a900473ffffffffffffffffffffffffffffffffffffffff1673ffffffffffffffffffffffffffffffffffffffff1663c3161e5a3386856040518463ffffffff167c0100000000000000000000000000000000000000000000000000000000028152600401808473ffffffffffffffffffffffffffffffffffffffff1673ffffffffffffffffffffffffffffffffffffffff16815260200183815260200180602001828103825283818151815260200191508051906020019080838360005b83811015612f6a578082015181840152602081019050612f4f565b50505050905090810190601f168015612f975780820380516001836020036101000a031916815260200191505b50945050505050600060405180830381600087803b158015612fb857600080fd5b505af1158015612fcc573d6000803e3d6000fd5b50505050600a60003373ffffffffffffffffffffffffffffffffffffffff1673ffffffffffffffffffffffffffffffffffffffff16815260200190815260200160002090508060408051908101604052808681526020018e73ffffffffffffffffffffffffffffffffffffffff16815250908060018154018082558091505090600182039060005260206000209060020201600090919290919091506000820151816000015560208201518160010160006101000a81548173ffffffffffffffffffffffffffffffffffffffff021916908373ffffffffffffffffffffffffffffffffffffffff1602179055505050506130c9898d8c8e8b613d0e565b505050505050505050505050565b60025481565b60008060149054906101000a900460ff161515156130fa57600080fd5b600860003373ffffffffffffffffffffffffffffffffffffffff1673ffffffffffffffffffffffffffffffffffffffff16815260200190815260200160002090506000602060ff161180156131b65750600073ffffffffffffffffffffffffffffffffffffffff16600b6000866000191660001916815260200190815260200160002060009054906101000a900473ffffffffffffffffffffffffffffffffffffffff1673ffffffffffffffffffffffffffffffffffffffff16145b80156131c6575060008160040154145b15156131d157600080fd5b33600b6000866000191660001916815260200190815260200160002060006101000a81548173ffffffffffffffffffffffffffffffffffffffff021916908373ffffffffffffffffffffffffffffffffffffffff16021790555083816000018160001916905550828160010190805190602001906132509291906143fd565b5042816002018190555062278d0042018160040181905550600081600501819055508181600601908051906020019061328a9291906143fd565b506001816003018190555061329d613fa7565b7f2eb5af8d2f9817dfc9f76aba440039c7976652f7cf8b41e53eae2eca19345bef338584604051808473ffffffffffffffffffffffffffffffffffffffff1673ffffffffffffffffffffffffffffffffffffffff168152602001836000191660001916815260200180602001828103825283818151815260200191508051906020019080838360005b83811015613341578082015181840152602081019050613326565b50505050905090810190601f16801561336e5780820380516001836020036101000a031916815260200191505b5094505050505060405180910390a150505050565b60066020528160005260406000208160038110151561339e57fe5b6003020160009150915050806000015490806001018054600181600116156101000203166002900480601f0160208091040260200160405190810160405280929190818152602001828054600181600116156101000203166002900480156134475780601f1061341c57610100808354040283529160200191613447565b820191906000526020600020905b81548152906001019060200180831161342a57829003601f168201915b505050505090806002018054600181600116156101000203166002900480601f0160208091040260200160405190810160405280929190818152602001828054600181600116156101000203166002900480156134e55780601f106134ba576101008083540402835291602001916134e5565b820191906000526020600020905b8154815290600101906020018083116134c857829003601f168201915b5050505050905083565b60008060149054906101000a900460ff1615151561350c57600080fd5b600860003373ffffffffffffffffffffffffffffffffffffffff1673ffffffffffffffffffffffffffffffffffffffff16815260200190815260200160002090506000816004015411151561356057600080fd5b818160010190805190602001906135789291906143fd565b505050565b60008060149054906101000a900460ff1615151561359a57600080fd5b600860003373ffffffffffffffffffffffffffffffffffffffff1673ffffffffffffffffffffffffffffffffffffffff1681526020019081526020016000209050600081600401541180156135f557506135f2611f7f565b82115b8015613602575060008451115b801561360f575060008351115b151561361a57600080fd5b60606040519081016040528083815260200185815260200184815250600660003373ffffffffffffffffffffffffffffffffffffffff1673ffffffffffffffffffffffffffffffffffffffff1681526020019081526020016000208660038110151561368257fe5b600302016000820151816000015560208201518160010190805190602001906136ac92919061452f565b5060408201518160020190805190602001906136c992919061452f565b509050505050505050565b6000809054906101000a900473ffffffffffffffffffffffffffffffffffffffff1673ffffffffffffffffffffffffffffffffffffffff163373ffffffffffffffffffffffffffffffffffffffff1614151561372f57600080fd5b61373881614303565b50565b6000809054906101000a900473ffffffffffffffffffffffffffffffffffffffff1673ffffffffffffffffffffffffffffffffffffffff163373ffffffffffffffffffffffffffffffffffffffff1614151561379657600080fd5b8073ffffffffffffffffffffffffffffffffffffffff16ff5b600060606000806000606060008060006137c761447d565b6137d08b611bdc565b9250600073ffffffffffffffffffffffffffffffffffffffff168373ffffffffffffffffffffffffffffffffffffffff161415151561380e57600080fd5b600860008473ffffffffffffffffffffffffffffffffffffffff1673ffffffffffffffffffffffffffffffffffffffff1681526020019081526020016000206101006040519081016040529081600082015460001916600019168152602001600182018054600181600116156101000203166002900480601f0160208091040260200160405190810160405280929190818152602001828054600181600116156101000203166002900480156139055780601f106138da57610100808354040283529160200191613905565b820191906000526020600020905b8154815290600101906020018083116138e857829003601f168201915b5050505050815260200160028201548152602001600382015481526020016004820154815260200160058201548152602001600682018054600181600116156101000203166002900480601f0160208091040260200160405190810160405280929190818152602001828054600181600116156101000203166002900480156139cf5780601f106139a4576101008083540402835291602001916139cf565b820191906000526020600020905b8154815290600101906020018083116139b257829003601f168201915b5050505050815260200160078201805480602002602001604051908101604052809291908181526020018280548015613a5d57602002820191906000526020600020905b8160009054906101000a900473ffffffffffffffffffffffffffffffffffffffff1673ffffffffffffffffffffffffffffffffffffffff1681526020019060010190808311613a13575b5050505050815250509050806000015199508060200151985080604001519750806080015196508060a0015195508060c0015194508060e00151519350613aa383611c86565b9150509193959799909294969850565b6000600660008373ffffffffffffffffffffffffffffffffffffffff1673ffffffffffffffffffffffffffffffffffffffff1681526020019081526020016000205060039050919050565b600080831415613b115760009050613b30565b8183029050818382811515613b2257fe5b04141515613b2c57fe5b8090505b92915050565b60008183811515613b4357fe5b04905092915050565b60008183019050828110151515613b5f57fe5b80905092915050565b6000818310613b775781613b79565b825b905092915050565b600080600080613b8f611f7f565b34111515613b9c57600080fd5b349250613bdb613bca6064613bbc60045487613afe90919063ffffffff16565b613b3690919063ffffffff16565b600554613b4c90919063ffffffff16565b91508183039050600081111515613bf157600080fd5b816002540160028190555080935050505090565b6060600080600080600093506000925060009150600090505b6003811015613ca0578581600381101515613c3557fe5b602002015160000151871115613c9357818682600381101515613c5457fe5b6020020151600001511115613c92578581600381101515613c7157fe5b6020020151600001519150809250600015158415151415613c9157600193505b5b5b8080600101915050613c1e565b600015158415151415613cea576040805190810160405280600a81526020017f53756273637269626572000000000000000000000000000000000000000000008152509450613d04565b8583600381101515613cf857fe5b60200201516020015194505b5050505092915050565b613d1661465b565b60c060405190810160405280876000191681526020013373ffffffffffffffffffffffffffffffffffffffff1681526020018673ffffffffffffffffffffffffffffffffffffffff168152602001858152602001848152602001838152509050600760008673ffffffffffffffffffffffffffffffffffffffff1673ffffffffffffffffffffffffffffffffffffffff16815260200190815260200160002081908060018154018082558091505090600182039060005260206000209060060201600090919290919091506000820151816000019060001916905560208201518160010160006101000a81548173ffffffffffffffffffffffffffffffffffffffff021916908373ffffffffffffffffffffffffffffffffffffffff16021790555060408201518160020160006101000a81548173ffffffffffffffffffffffffffffffffffffffff021916908373ffffffffffffffffffffffffffffffffffffffff1602179055506060820151816003019080519060200190613e9b92919061452f565b506080820151816004015560a082015181600501555050507ff45d5fb1ff7917fac1797935960e4ce0f1218fa14d57fe6744c7cd0b05460baf816040015182600001518360600151604051808473ffffffffffffffffffffffffffffffffffffffff1673ffffffffffffffffffffffffffffffffffffffff168152602001836000191660001916815260200180602001828103825283818151815260200191508051906020019080838360005b83811015613f63578082015181840152602081019050613f48565b50505050905090810190601f168015613f905780820380516001836020036101000a031916815260200191505b5094505050505060405180910390a1505050505050565b613faf614639565b613fb7614639565b613fbf614639565b606060405190810160405280662386f26fc10000613fdb611f7f565b0181526020016040805190810160405280600681526020017f53696c7665720000000000000000000000000000000000000000000000000000815250815260200160c0604051908101604052806084815260200161486160849139815250925060606040519081016040528066470de4df820000614057611f7f565b0181526020016040805190810160405280600481526020017f476f6c6400000000000000000000000000000000000000000000000000000000815250815260200160c0604051908101604052806087815260200161472a60879139815250915060606040519081016040528066b1a2bc2ec500006140d3611f7f565b0181526020016040805190810160405280600881526020017f506c6174696e756d000000000000000000000000000000000000000000000000815250815260200160e06040519081016040528060b081526020016147b160b09139815250905082600660003373ffffffffffffffffffffffffffffffffffffffff1673ffffffffffffffffffffffffffffffffffffffff168152602001908152602001600020600060038110151561418157fe5b600302016000820151816000015560208201518160010190805190602001906141ab92919061452f565b5060408201518160020190805190602001906141c892919061452f565b5090505081600660003373ffffffffffffffffffffffffffffffffffffffff1673ffffffffffffffffffffffffffffffffffffffff168152602001908152602001600020600160038110151561421a57fe5b6003020160008201518160000155602082015181600101908051906020019061424492919061452f565b50604082015181600201908051906020019061426192919061452f565b5090505080600660003373ffffffffffffffffffffffffffffffffffffffff1673ffffffffffffffffffffffffffffffffffffffff16815260200190815260200160002060026003811015156142b357fe5b600302016000820151816000015560208201518160010190805190602001906142dd92919061452f565b5060408201518160020190805190602001906142fa92919061452f565b50905050505050565b600073ffffffffffffffffffffffffffffffffffffffff168173ffffffffffffffffffffffffffffffffffffffff161415151561433f57600080fd5b8073ffffffffffffffffffffffffffffffffffffffff166000809054906101000a900473ffffffffffffffffffffffffffffffffffffffff1673ffffffffffffffffffffffffffffffffffffffff167f8be0079c531659141344cd1fd0a4f28419497f9722a3daafe3b4186f6b6457e060405160405180910390a3806000806101000a81548173ffffffffffffffffffffffffffffffffffffffff021916908373ffffffffffffffffffffffffffffffffffffffff16021790555050565b828054600181600116156101000203166002900490600052602060002090601f016020900481019282601f1061443e57805160ff191683800117855561446c565b8280016001018555821561446c579182015b8281111561446b578251825591602001919060010190614450565b5b50905061447991906146c1565b5090565b6101006040519081016040528060008019168152602001606081526020016000815260200160008152602001600081526020016000815260200160608152602001606081525090565b50805460018160011615610100020316600290046000825580601f106144ec575061450b565b601f01602090049060005260206000209081019061450a91906146c1565b5b50565b508054600082559060005260206000209081019061452c91906146c1565b50565b828054600181600116156101000203166002900490600052602060002090601f016020900481019282601f1061457057805160ff191683800117855561459e565b8280016001018555821561459e579182015b8281111561459d578251825591602001919060010190614582565b5b5090506145ab91906146c1565b5090565b828054828255906000526020600020908101928215614628579160200282015b828111156146275782518260006101000a81548173ffffffffffffffffffffffffffffffffffffffff021916908373ffffffffffffffffffffffffffffffffffffffff160217905550916020019190600101906145cf565b5b50905061463591906146e6565b5090565b6060604051908101604052806000815260200160608152602001606081525090565b60c06040519081016040528060008019168152602001600073ffffffffffffffffffffffffffffffffffffffff168152602001600073ffffffffffffffffffffffffffffffffffffffff1681526020016060815260200160008152602001600081525090565b6146e391905b808211156146df5760008160009055506001016146c7565b5090565b90565b61472691905b8082111561472257600081816101000a81549073ffffffffffffffffffffffffffffffffffffffff0219169055506001016146ec565b5090565b905600596f752077696c6c2072656365697665206120476f6c6420626164676520746f6b656e20696e20636f6d70656e736174696f6e2c20657874726120766964656f20636f6e74656e7420616e6420617564696f20636f6d6d656e74617279206f66206e657720616e64206f6c6420766964656f732e20416e642061206c6f74206f66206c6f76652e596f752077696c6c2072656365697665206120476f6c6420626164676520746f6b656e20696e20636f6d70656e736174696f6e2c20616c6c206f662061626f766520616e642061636365737320746f20616e206578636c757369766520666f72756d2c20776865726520692077696c6c207265706c7920746f20616e79207175657374696f6e20796f752077616e7420746f2061736b20746f206d652e20416e642061206c6f74206f66206c6f76652e596f752077696c6c207265636569766520612053696c76657220626164676520746f6b656e20696e20636f6d70656e736174696f6e2c206f63617373696f6e616c20657874726120636f6e74656e74206c696b65206d616b696e672d6f666620766964656f73206f722070686f746f732e20416e642061206c6f74206f66206c6f76652ea165627a7a723058204c1caf99bcd16cf8b33df56f6de76ef691243ca454eb1122f576842b379bb4f70029",
  "source": "pragma solidity ^0.4.24;\n\nimport 'openzeppelin-solidity/contracts/math/SafeMath.sol';\nimport 'openzeppelin-solidity/contracts/math/Math.sol';\nimport 'openzeppelin-solidity/contracts/ownership/Ownable.sol';\nimport 'openzeppelin-solidity/contracts/lifecycle/Pausable.sol';\nimport 'openzeppelin-solidity/contracts/lifecycle/Destructible.sol';\nimport './libraries/strings.sol';\nimport './libraries/Array256Lib.sol';\nimport './BadgesLedger.sol';\n\n  /**\n    * @title Mecenas\n    * The main mecenas contract. Here is all the main logic to register\n    * content creators and be able to support then via prepaid monthly\n    * subscriptions. There is a percent fee + fixed fee per every subs\n    * that goes to the contract owner to support development. Content\n    * creators can withdraw their wage monthly.\n    */\ncontract Mecenas is Ownable, Pausable, Destructible {\n  using SafeMath for uint256;\n  using Math for uint256;\n  using Array256Lib for uint256[];\n  using strings for *;\n  \n  address public owner;\n  uint256 public ownerBalance;\n\n  BadgesLedger public badgesLedger;\n\n  uint public feePercent; \n  uint public fixedFee;\n\n  struct PriceTierSuggestion {\n    uint256 price;\n    string title;\n    string description;\n  }\n\n  struct MecenasMessage {\n    bytes32 mecenasNick;\n    address mecenasAddress;\n    address contentCreatorAddress;\n    string message;\n    uint subscriptions;\n    uint priceTier;\n  }\n\n  struct MecenasSupport {\n    bytes32 nickname;\n    address[] supportsContentCreators;\n  }\n\n  struct ContentCreator {\n    bytes32 nickname;\n    string description;\n    uint256 creationTimestamp;\n    uint256 subscriptionIndex;\n    uint256 payday;\n    uint256 balance;\n    string ipfsAvatar;\n    address[] mecenasAddresses;\n    mapping (uint => uint256[]) mecenasSubscriptions;\n  }\n\n  struct Badge {\n    uint256 tokenId;\n    address contentCreatorAddress;\n  }\n\n  mapping (address => PriceTierSuggestion[3]) public suggestPriceTiers;\n  mapping (address => MecenasMessage[]) public messageInbox;\n  mapping (address => ContentCreator) public contentCreators;\n  mapping (address => MecenasSupport) public mecenas;\n  mapping (address => Badge[]) public mecenasBadges;\n  mapping (bytes32 => address) public contentCreatorAddresses;\n  \n  /**\n    * @dev Emits a new subscription message, from the mecenas to the content creator.\n    * It can be showed in the main website or integrated into a streaming platform,\n    * to show in live and see the content creator reaction.\n    *\n    * An integration with Twitch could be possible.\n   */\n  event newSubscriptionMessage(address contentCreatorAddress, bytes32 mecenasNickname, string mecenasMessage);\n\n  /**\n    * Emits a new content creator. This can be consumed in the webapp to show latest content creators.\n    */\n  event newContentCreator(address contentCreatorAddress, bytes32 nickname, string ipfsAvatar);\n\n  /**\n    * @dev Initialize the contract, sets an owner, a default feePercent and fixedFee.\n    */\n  constructor() public {\n    owner = msg.sender;\n    feePercent = 1;\n    fixedFee = 0.0006 ether;\n  }\n  /** @dev Set the badges ledger contract address\n    * @param badgesLedgerAddress the Badges ledger deployed address\n    */\n  function setBadgesLedgerContract(address badgesLedgerAddress) public onlyOwner {\n    badgesLedger = BadgesLedger(badgesLedgerAddress);\n  }\n\n  /**\n    * @dev Modifier to throw when msg.value is less than contract owner fee;\n    */\n  modifier minimumAmount {\n    require(msg.value > getMinimumAmount());\n    _;\n  }\n\n  /**\n    * @dev Calculate and returns the minimum amount possible to surpass owner fees.\n    * @return uint The minimum possible amount to surpass fees.\n    */\n  function getMinimumAmount() public view returns(uint) {\n    return fixedFee.add(fixedFee.mul(feePercent).div(100));\n  }\n  /**\n    * @dev Function that returns true if first argument is greater than minimum owner fee.\n    * @param amount Test if amount is greater than minimum amount.\n    * @return boolean\n    */\n  function greaterThanMinimumAmount(uint amount) public view returns (bool) {\n    return amount > getMinimumAmount();\n  }\n\n  /** Owner functions **/\n\n  /** \n    * @dev Set percent fee per content creator subscription.\n    * @param newFee The new percent fee to be set\n    */\n  function setPercentFee(uint256 newFee) public onlyOwner {\n    feePercent = newFee;\n  }\n\n  /** \n    * @dev Set fixed fee per content creator subscription.\n    * @param newFee The new fixed fee to be set.\n  */\n  function setFixedFee(uint256 newFee) public onlyOwner {\n    fixedFee = newFee;\n  }\n  /**\n    * @dev Pay the fee to the contract owner. Returns the remain amount to support the content creator.\n    * @return uint256 Returns the remaining amount after fees.\n    */\n  function payFee() private returns(uint256) {\n    require(msg.value > getMinimumAmount());\n    uint256 currentAmount = msg.value;\n    uint256 fee = fixedFee.add(currentAmount.mul(feePercent).div(100));\n    uint256 amountAfterFee = currentAmount - fee;\n    require(amountAfterFee > 0);\n    ownerBalance = ownerBalance + fee;\n    return amountAfterFee;\n  }\n\n  /** @dev Withdraw owner fees, only callable by owner.\n    */\n  function withdrawFees() public onlyOwner {\n    // Remember to substract the pending withdraw before\n    // sending to prevent re-entrancy attacks\n    uint256 transferAmount = ownerBalance;\n    ownerBalance -= transferAmount;\n    msg.sender.transfer(transferAmount);\n  }\n\n  /**\n   * Content creator functions\n   */\n  \n  /** @dev Get content creator tiers length, to be able to iterate it later.\n    * @param contentCreatorAddress The content creator address.\n    * @return The length of the array.\n    */\n  function getTiersLength(address contentCreatorAddress) public view returns (uint) {\n    return suggestPriceTiers[contentCreatorAddress].length;\n  }\n  \n  /** @dev Get content creator tier content, by index.\n    * @param contentCreatorAddress The content creator address.\n    * @param index The index of the array.\n    * @return title The title of the tier.\n    * @return description The description of the tier.\n    * @return price The price of the tier.\n    */\n  function getTier(address contentCreatorAddress, uint index) public view returns (\n    string title,\n    string description,\n    uint price\n  ) {\n    PriceTierSuggestion memory tier = suggestPriceTiers[contentCreatorAddress][index];\n    title = tier.title;\n    description = tier.description;\n    price = tier.price;\n  }\n  \n  /** @dev Content creator getter\n    * @param addressInput The content creator address.\n    * @return nickname The content creator name.\n    * @return description Content creator description.\n    * @return creationTimestamp Creation timestamp\n    * @return payday Next content creator payday date\n    * @return balance Current content creator balance\n    * @return ipfsAvatar Current content creator Avatar IPFS hash\n    * @return totalMecenas The number of subscriptions\n    * @return contentCreatorAddress Address\n    * @return wage The next wage value.\n    */\n  function getContentCreator(address addressInput) public view returns (\n      bytes32 nickname,\n      string description,\n      uint256 creationTimestamp,\n      uint256 payday,\n      uint256 balance,\n      string ipfsAvatar,\n      uint256 totalMecenas,\n      address contentCreatorAddress,\n      uint256 wage\n    ) {\n    ContentCreator memory contentCreator = contentCreators[addressInput];\n    nickname = contentCreator.nickname;\n    description = contentCreator.description;\n    creationTimestamp = contentCreator.creationTimestamp;\n    payday = contentCreator.payday;\n    balance = contentCreator.balance;\n    ipfsAvatar = contentCreator.ipfsAvatar;\n    totalMecenas = contentCreator.mecenasAddresses.length;\n    contentCreatorAddress = addressInput;\n    wage = calculateNextWage(addressInput);\n  }\n\n  /** @dev Content creator getter\n    * @param nickname The content creator nickname.\n    * @return contentCreatorAddress address of content creator.\n    */\n  function getContentCreatorAddress(bytes32 nickname) public view returns (\n      address contentCreatorAddress\n    ) {\n    contentCreatorAddress = contentCreatorAddresses[nickname];\n  }\n\n  /** @dev Content creator getter\n    * @param nick The content creator nickname.\n    * @return nickname The content creator name.\n    * @return description Content creator description.\n    * @return creationTimestamp Creation timestamp\n    * @return payday Next content creator payday date\n    * @return balance Current content creator balance\n    * @return ipfsAvatar Current content creator Avatar IPFS hash\n    * @return totalMecenas The number of subscriptions\n    * @return contentCreatorAddress Address\n    * @return wage The next wage value.\n    */\n  function getContentCreatorByNickname(bytes32 nick) public view returns (\n      bytes32 nickname,\n      string description,\n      uint256 creationTimestamp,\n      uint256 payday,\n      uint256 balance,\n      string ipfsAvatar,\n      uint256 totalMecenas,\n      address contentCreatorAddress,\n      uint256 wage\n    ) {\n    contentCreatorAddress = getContentCreatorAddress(nick);\n    require(contentCreatorAddress != address(0));\n    ContentCreator memory contentCreator = contentCreators[contentCreatorAddress];\n    nickname = contentCreator.nickname;\n    description = contentCreator.description;\n    creationTimestamp = contentCreator.creationTimestamp;\n    payday = contentCreator.payday;\n    balance = contentCreator.balance;\n    ipfsAvatar = contentCreator.ipfsAvatar;\n    totalMecenas = contentCreator.mecenasAddresses.length;\n    wage = calculateNextWage(contentCreatorAddress);\n  }\n  /** \n    * @dev Sets the default price tiers to the current msg.sender\n    */\n  function setDefaultPriceTiers() private {\n    // Default tiers\n    PriceTierSuggestion memory tierSilver = PriceTierSuggestion({\n      title: \"Silver\",\n      description: \"You will receive a Silver badge token in compensation, ocassional extra content like making-off videos or photos. And a lot of love.\",\n      price: getMinimumAmount() + 0.01 ether\n    });\n    PriceTierSuggestion memory tierGold = PriceTierSuggestion({\n      title: \"Gold\",\n      description: \"You will receive a Gold badge token in compensation, extra video content and audio commentary of new and old videos. And a lot of love.\",\n      price: getMinimumAmount() + 0.02 ether\n    });\n    PriceTierSuggestion memory tierPlatinum = PriceTierSuggestion({\n      title: \"Platinum\",\n      description: \"You will receive a Gold badge token in compensation, all of above and access to an exclusive forum, where i will reply to any question you want to ask to me. And a lot of love.\",\n      price: getMinimumAmount() + 0.05 ether\n    });\n    suggestPriceTiers[msg.sender][0] = tierSilver;\n    suggestPriceTiers[msg.sender][1] = tierGold;\n    suggestPriceTiers[msg.sender][2] = tierPlatinum;\n  }\n  /** \n    * @dev Gets the Mecenas Badge name for adding it to the Token URI\n    * @param amount uint256 with the amount.\n    * @param priceTiers The tiers of the content creator.\n    */\n  function getSubscriberLevel(uint256 amount, PriceTierSuggestion[3] priceTiers) private pure returns (string){\n    bool levelFound = false;\n    uint priceTierIndex = 0;\n    uint currentLevel = 0;\n    for(uint counter = 0; counter < 3; counter++){\n        if(amount > uint(priceTiers[counter].price)) {\n          if (uint(priceTiers[counter].price) > currentLevel) {\n            currentLevel = priceTiers[counter].price;\n            priceTierIndex = counter;\n            if (levelFound == false) {\n              levelFound = true;\n            }\n        }\n      }\n    }\n    if (levelFound == false) {\n      return \"Subscriber\";\n    } \n    return priceTiers[priceTierIndex].title;\n  }\n\n  /** @dev Content creator getter\n    * @param nickname The content creator name.\n    * @param description Content creator description.\n    * @param ipfsAvatar Current content creator Avatar IPFS hash\n    */\n  function contentCreatorFactory(bytes32 nickname, string description, string ipfsAvatar) public whenNotPaused {\n    ContentCreator storage contentCreator = contentCreators[msg.sender];\n    // At least nickname must be greater than zero chars, be unique, and content creator must not exists\n    require(nickname.length > 0 && contentCreatorAddresses[nickname] == address(0) && contentCreator.payday == 0);\n    // Initialize a new content creator\n    contentCreatorAddresses[nickname] = msg.sender;\n    contentCreator.nickname = nickname;\n    contentCreator.description = description;\n    contentCreator.creationTimestamp = now;\n    contentCreator.payday = now + 30 days;\n    contentCreator.balance = 0;\n    contentCreator.ipfsAvatar = ipfsAvatar;\n    contentCreator.subscriptionIndex = 1;\n\n    setDefaultPriceTiers();\n    // Emit content creator event\n    emit newContentCreator(msg.sender, nickname, ipfsAvatar);\n  }\n\n  /**\n    * @dev Change the content creator address, only allowed by content creator itself.\n    * @param newAddress The new address to be set.\n   */\n  function changeContentCreatorAddress(address newAddress) public whenNotPaused {\n    ContentCreator memory current = contentCreators[msg.sender];\n    require(current.payday > 0);\n    delete contentCreators[msg.sender];\n    delete contentCreatorAddresses[current.nickname];\n    contentCreators[newAddress] = current;\n    contentCreatorAddresses[current.nickname] = newAddress;\n  }\n  \n  /**\n    * @dev Change the content creator avatar, only allowed by content creator itself.\n    * @param avatarHash The new avatar IPFS hash to be set.\n   */\n  function changeAvatar(string avatarHash) public whenNotPaused {\n    ContentCreator storage current = contentCreators[msg.sender];\n    require(current.payday > 0);\n    current.ipfsAvatar = avatarHash;\n  }\n\n  /**\n    * @dev Change the content creator tier, by index, only allowed by content creator itself.\n    * @param tierIndex The tier index to change.\n    * @param title The new title name to be set.\n    * @param description The new description to be set.\n    * @param price  The new price to be set.\n   */\n  function changeContentCreatorTiers(uint tierIndex, string title, string description, uint256 price) public whenNotPaused {\n    ContentCreator storage current = contentCreators[msg.sender];\n    // Check if content creator is initialized, price is greater than minimum amount and string params are not empty.\n    require(current.payday > 0 && price > getMinimumAmount() && bytes(title).length > 0 && bytes(description).length > 0);\n    // Replace value in global map variable\n    suggestPriceTiers[msg.sender][tierIndex] = PriceTierSuggestion({\n      title: title,\n      description: description,\n      price: price\n    });\n  }\n  /**\n    * @dev Change the content creator description, only allowed by content creator itself.\n    * @param description The new description to be set.\n   */\n  function changeDescription(string description) public whenNotPaused {\n    ContentCreator storage current = contentCreators[msg.sender];\n    require(current.payday > 0);\n    current.description = description;\n  }\n\n  /**\n    * @dev Calculate next content creator wage.\n    * @param contentCreatorAddress Content creator address\n    * @return uint with the next content creator wage.\n    */\n  function calculateNextWage(address contentCreatorAddress) public view returns (uint256){\n    ContentCreator storage contentCreator = contentCreators[contentCreatorAddress];\n    return contentCreator.mecenasSubscriptions[contentCreator.subscriptionIndex].sumElements();\n  }\n\n  /**\n    * @dev Allow content creator to withdraw once the payload date is greater or equal than today. If contract\n    *  is paused, this function is still reachable for content creators.\n   */\n  function monthlyWithdraw() public {\n    ContentCreator storage current = contentCreators[msg.sender];\n    uint  nextWage = current.mecenasSubscriptions[current.subscriptionIndex].sumElements();\n    // Allow withdraw only after payday\n    require(now >= current.payday && current.balance > 0);\n    // If the current balance is less than the theorical monthly withdraw, withdraw that lower amount.\n    uint transferAmount = current.balance.min256(nextWage);\n    // Remember to lock the withdraw function until next month\n    current.payday = current.payday + 30 days;\n    // Point to the next subscription index\n    current.subscriptionIndex = current.subscriptionIndex + 1;\n    // Remember to substract the pending withdraw before\n    // sending to prevent re-entrancy attacks\n    current.balance = current.balance - transferAmount;\n    msg.sender.transfer(transferAmount);\n  }\n\n  /** Mecenas functions **/\n\n  /**\n    * @dev Emit a Mecenas Message event to be consumed in a stream or website. Show the support from the mecenas to the content creator.\n    * @param mecenasNickname Mecenas nickname.\n    * @param contentCreatorAddress Content creator address subscription.\n    * @param message Mecenas message.\n    * @param subscriptions Number of months subbed.\n    * @param priceTier The subscription price per month.\n    */\n  function broadcastNewSubscription(bytes32 mecenasNickname, address contentCreatorAddress, string message, uint256 subscriptions, uint256 priceTier) private {\n    MecenasMessage memory newSubMessage = MecenasMessage({\n      mecenasNick: mecenasNickname,\n      mecenasAddress: msg.sender,\n      contentCreatorAddress: contentCreatorAddress,\n      message: message,\n      subscriptions: subscriptions,\n      priceTier: priceTier\n    });\n    // Save message into storage\n    messageInbox[contentCreatorAddress].push(newSubMessage);\n    // Send a new subscription event\n    emit newSubscriptionMessage(newSubMessage.contentCreatorAddress, newSubMessage.mecenasNick, newSubMessage.message);\n  }\n\n  /**\n    * @dev Support a determined content creator, via a prepaid monthly subscription.\n    * You can set any price, regarding the suggested price tiers, and add a support message to the content creator.\n    * @param mecenasNickname Mecenas nickname.\n    * @param contentCreatorAddress Content creator address subscription.\n    * @param message Mecenas message.\n    * @param subscriptions Number of months subbed.\n    */\n  function supportContentCreator(address contentCreatorAddress, uint256 subscriptions, string message, bytes32 mecenasNickname) public payable whenNotPaused{\n    require(contentCreatorAddress != address(0) && msg.value > 0);\n    // Calculate fee and sum to contract owner balance\n    uint256 amountAfterFees = payFee();\n    // Calculate price per month subscription (totalAmount / months = priceTier)\n    uint256 priceTier = amountAfterFees.div(subscriptions);\n    ContentCreator storage contentCreator = contentCreators[contentCreatorAddress];\n    require(contentCreator.subscriptionIndex >= 1);\n    // Add the subscriptions to the content creator\n    for (uint newSub = 0; newSub < subscriptions; newSub++) {\n      contentCreator.mecenasSubscriptions[contentCreator.subscriptionIndex + newSub].push(priceTier);\n      contentCreator.balance = contentCreator.balance + priceTier;\n    }\n    // Add the mecenas address to the content creator\n    contentCreator.mecenasAddresses.push(msg.sender);\n    // Save mecenas into global variable\n    mecenas[msg.sender].nickname = mecenasNickname;\n    mecenas[msg.sender].supportsContentCreators.push(contentCreatorAddress);\n\n    // Mint SubscriptionBadge to Mecenas\n    uint tokenId = badgesLedger.totalSupply() + 1; \n    string memory subscriptionLevel = getSubscriberLevel(priceTier, suggestPriceTiers[contentCreatorAddress]);\n    // Token uri contains \"level\" string \n    string memory tokenUri = subscriptionLevel;\n    badgesLedger.mintSubscriptionBadge(msg.sender, tokenId, tokenUri);\n    // Save token into separate map, that contains tokenId and contentCreator address, mapped by mecenas address.\n    Badge[] storage mecenasTokens = mecenasBadges[msg.sender];\n    mecenasTokens.push(Badge({tokenId: tokenId, contentCreatorAddress: contentCreatorAddress}));\n    // Send message to the content creator inbox and emit event\n    broadcastNewSubscription(mecenasNickname, contentCreatorAddress, message, subscriptions, priceTier);\n  }\n}",
  "sourcePath": "/Users/saintway/JHub/demo-ethereum-dapp/mecenas/contracts/Mecenas.sol",
  "compiler": {
    "name": "solc",
    "version": "0.4.24+commit.e67f0147.Emscripten.clang"
  },
  "schemaVersion": "3.3.2",
  "updatedAt": "2020-11-14T02:05:14.259Z",
  "networkType": "ethereum",
  "devdoc": {
    "methods": {
      "calculateNextWage(address)": {
        "details": "Calculate next content creator wage.",
        "params": {
          "contentCreatorAddress": "Content creator address"
        },
        "return": "uint with the next content creator wage."
      },
      "changeAvatar(string)": {
        "details": "Change the content creator avatar, only allowed by content creator itself.",
        "params": {
          "avatarHash": "The new avatar IPFS hash to be set."
        }
      },
      "changeContentCreatorAddress(address)": {
        "details": "Change the content creator address, only allowed by content creator itself.",
        "params": {
          "newAddress": "The new address to be set."
        }
      },
      "changeContentCreatorTiers(uint256,string,string,uint256)": {
        "details": "Change the content creator tier, by index, only allowed by content creator itself.",
        "params": {
          "description": "The new description to be set.",
          "price": "The new price to be set.",
          "tierIndex": "The tier index to change.",
          "title": "The new title name to be set."
        }
      },
      "changeDescription(string)": {
        "details": "Change the content creator description, only allowed by content creator itself.",
        "params": {
          "description": "The new description to be set."
        }
      },
      "contentCreatorFactory(bytes32,string,string)": {
        "details": "Content creator getter",
        "params": {
          "description": "Content creator description.",
          "ipfsAvatar": "Current content creator Avatar IPFS hash",
          "nickname": "The content creator name."
        }
      },
      "destroy()": {
        "details": "Transfers the current balance to the owner and terminates the contract."
      },
      "getContentCreator(address)": {
        "details": "Content creator getter",
        "params": {
          "addressInput": "The content creator address."
        },
        "return": "nickname The content creator name.description Content creator description.creationTimestamp Creation timestamppayday Next content creator payday datebalance Current content creator balanceipfsAvatar Current content creator Avatar IPFS hashtotalMecenas The number of subscriptionscontentCreatorAddress Addresswage The next wage value."
      },
      "getContentCreatorAddress(bytes32)": {
        "details": "Content creator getter",
        "params": {
          "nickname": "The content creator nickname."
        },
        "return": "contentCreatorAddress address of content creator."
      },
      "getContentCreatorByNickname(bytes32)": {
        "details": "Content creator getter",
        "params": {
          "nick": "The content creator nickname."
        },
        "return": "nickname The content creator name.description Content creator description.creationTimestamp Creation timestamppayday Next content creator payday datebalance Current content creator balanceipfsAvatar Current content creator Avatar IPFS hashtotalMecenas The number of subscriptionscontentCreatorAddress Addresswage The next wage value."
      },
      "getMinimumAmount()": {
        "details": "Calculate and returns the minimum amount possible to surpass owner fees.",
        "return": "uint The minimum possible amount to surpass fees."
      },
      "getTier(address,uint256)": {
        "details": "Get content creator tier content, by index.",
        "params": {
          "contentCreatorAddress": "The content creator address.",
          "index": "The index of the array."
        },
        "return": "title The title of the tier.description The description of the tier.price The price of the tier."
      },
      "getTiersLength(address)": {
        "details": "Get content creator tiers length, to be able to iterate it later.",
        "params": {
          "contentCreatorAddress": "The content creator address."
        },
        "return": "The length of the array."
      },
      "greaterThanMinimumAmount(uint256)": {
        "details": "Function that returns true if first argument is greater than minimum owner fee.",
        "params": {
          "amount": "Test if amount is greater than minimum amount."
        },
        "return": "boolean"
      },
      "monthlyWithdraw()": {
        "details": "Allow content creator to withdraw once the payload date is greater or equal than today. If contract is paused, this function is still reachable for content creators."
      },
      "pause()": {
        "details": "called by the owner to pause, triggers stopped state"
      },
      "renounceOwnership()": {
        "details": "Allows the current owner to relinquish control of the contract."
      },
      "setBadgesLedgerContract(address)": {
        "details": "Set the badges ledger contract address",
        "params": {
          "badgesLedgerAddress": "the Badges ledger deployed address"
        }
      },
      "setFixedFee(uint256)": {
        "details": "Set fixed fee per content creator subscription.",
        "params": {
          "newFee": "The new fixed fee to be set."
        }
      },
      "setPercentFee(uint256)": {
        "details": "Set percent fee per content creator subscription.",
        "params": {
          "newFee": "The new percent fee to be set"
        }
      },
      "supportContentCreator(address,uint256,string,bytes32)": {
        "details": "Support a determined content creator, via a prepaid monthly subscription. You can set any price, regarding the suggested price tiers, and add a support message to the content creator.",
        "params": {
          "contentCreatorAddress": "Content creator address subscription.",
          "mecenasNickname": "Mecenas nickname.",
          "message": "Mecenas message.",
          "subscriptions": "Number of months subbed."
        }
      },
      "transferOwnership(address)": {
        "details": "Allows the current owner to transfer control of the contract to a newOwner.",
        "params": {
          "_newOwner": "The address to transfer ownership to."
        }
      },
      "unpause()": {
        "details": "called by the owner to unpause, returns to normal state"
      },
      "withdrawFees()": {
        "details": "Withdraw owner fees, only callable by owner."
      }
    },
    "title": "Mecenas The main mecenas contract. Here is all the main logic to register content creators and be able to support then via prepaid monthly subscriptions. There is a percent fee + fixed fee per every subs that goes to the contract owner to support development. Content creators can withdraw their wage monthly."
  },
  "userdoc": {
    "methods": {
      "renounceOwnership()": {
        "notice": "Renouncing to ownership will leave the contract without an owner. It will not be possible to call the functions with the `onlyOwner` modifier anymore."
      }
    }
  }
}